{
  "contractName": "Spot",
  "abi": [
    {
      "constant": true,
      "inputs": [],
      "name": "borrLength",
      "outputs": [
        {
          "name": "",
          "type": "uint256"
        }
      ],
      "payable": false,
      "stateMutability": "view",
      "type": "function"
    },
    {
      "anonymous": false,
      "inputs": [
        {
          "indexed": false,
          "name": "a",
          "type": "uint256"
        }
      ],
      "name": "Log",
      "type": "event"
    },
    {
      "constant": true,
      "inputs": [],
      "name": "test",
      "outputs": [
        {
          "name": "",
          "type": "uint256"
        }
      ],
      "payable": false,
      "stateMutability": "view",
      "type": "function"
    },
    {
      "constant": true,
      "inputs": [],
      "name": "getTraders",
      "outputs": [
        {
          "name": "",
          "type": "address[]"
        }
      ],
      "payable": false,
      "stateMutability": "view",
      "type": "function"
    },
    {
      "constant": true,
      "inputs": [],
      "name": "getTradersAmounts",
      "outputs": [
        {
          "name": "",
          "type": "uint256[]"
        }
      ],
      "payable": false,
      "stateMutability": "view",
      "type": "function"
    },
    {
      "constant": true,
      "inputs": [
        {
          "name": "idx",
          "type": "uint256"
        }
      ],
      "name": "getLenders",
      "outputs": [
        {
          "name": "",
          "type": "address[]"
        }
      ],
      "payable": false,
      "stateMutability": "view",
      "type": "function"
    },
    {
      "constant": true,
      "inputs": [],
      "name": "getBorrowersLength",
      "outputs": [
        {
          "name": "",
          "type": "uint256"
        }
      ],
      "payable": false,
      "stateMutability": "view",
      "type": "function"
    },
    {
      "constant": false,
      "inputs": [
        {
          "name": "borrower",
          "type": "address"
        },
        {
          "name": "borrTokIdx",
          "type": "int256"
        },
        {
          "name": "token",
          "type": "address"
        },
        {
          "name": "x1Amount",
          "type": "uint256"
        },
        {
          "name": "lender",
          "type": "address"
        },
        {
          "name": "lenderIdx",
          "type": "int256"
        },
        {
          "name": "rate",
          "type": "uint256"
        },
        {
          "name": "fee",
          "type": "uint256"
        },
        {
          "name": "margin",
          "type": "uint256"
        }
      ],
      "name": "Lock",
      "outputs": [],
      "payable": false,
      "stateMutability": "nonpayable",
      "type": "function"
    },
    {
      "constant": false,
      "inputs": [
        {
          "name": "borrTokIdx",
          "type": "uint256"
        },
        {
          "name": "amount",
          "type": "uint256"
        },
        {
          "name": "rate",
          "type": "uint256"
        },
        {
          "name": "fee",
          "type": "uint256"
        },
        {
          "name": "margin",
          "type": "uint256"
        }
      ],
      "name": "BuyToCover",
      "outputs": [],
      "payable": false,
      "stateMutability": "nonpayable",
      "type": "function"
    },
    {
      "constant": false,
      "inputs": [
        {
          "name": "borrTokIdx",
          "type": "uint256[]"
        },
        {
          "name": "lenderIdx",
          "type": "uint256[]"
        },
        {
          "name": "newLenders",
          "type": "address[]"
        },
        {
          "name": "newLendersIdx",
          "type": "int256[]"
        },
        {
          "name": "amts",
          "type": "uint256[]"
        }
      ],
      "name": "Swap",
      "outputs": [],
      "payable": false,
      "stateMutability": "nonpayable",
      "type": "function"
    },
    {
      "constant": false,
      "inputs": [
        {
          "name": "borrTokIdx",
          "type": "uint256[]"
        },
        {
          "name": "lenderIdx",
          "type": "uint256[]"
        },
        {
          "name": "amount",
          "type": "uint256"
        }
      ],
      "name": "Recall",
      "outputs": [],
      "payable": false,
      "stateMutability": "nonpayable",
      "type": "function"
    }
  ],
  "bytecode": "0x6060604052341561000f57600080fd5b611a698061001e6000396000f3006060604052600436106100a4576000357c0100000000000000000000000000000000000000000000000000000000900463ffffffff16806317d43c8b146100a95780632054b3f5146101135780632ccd8cba1461013c57806357b61360146101df57806373ef89881461024957806374c05ba71461027257806389d3cfae146102ea5780639ce6baa014610331578063a50518a7146103de578063f8a8fd6d14610538575b600080fd5b34156100b457600080fd5b6100bc610561565b6040518080602001828103825283818151815260200191508051906020019060200280838360005b838110156100ff5780820151818401526020810190506100e4565b505050509050019250505060405180910390f35b341561011e57600080fd5b6101266105bf565b6040518082815260200191505060405180910390f35b341561014757600080fd5b6101dd600480803590602001908201803590602001908080602002602001604051908101604052809392919081815260200183836020028082843782019150505050505091908035906020019082018035906020019080806020026020016040519081016040528093929190818152602001838360200280828437820191505050505050919080359060200190919050506105cb565b005b34156101ea57600080fd5b6101f2610784565b6040518080602001828103825283818151815260200191508051906020019060200280838360005b8381101561023557808201518184015260208101905061021a565b505050509050019250505060405180910390f35b341561025457600080fd5b61025c610818565b6040518082815260200191505060405180910390f35b341561027d57600080fd5b610293600480803590602001909190505061081e565b6040518080602001828103825283818151815260200191508051906020019060200280838360005b838110156102d65780820151818401526020810190506102bb565b505050509050019250505060405180910390f35b34156102f557600080fd5b61032f60048080359060200190919080359060200190919080359060200190919080359060200190919080359060200190919050506108cc565b005b341561033c57600080fd5b6103dc600480803573ffffffffffffffffffffffffffffffffffffffff1690602001909190803590602001909190803573ffffffffffffffffffffffffffffffffffffffff1690602001909190803590602001909190803573ffffffffffffffffffffffffffffffffffffffff169060200190919080359060200190919080359060200190919080359060200190919080359060200190919050506109fd565b005b34156103e957600080fd5b61053660048080359060200190820180359060200190808060200260200160405190810160405280939291908181526020018383602002808284378201915050505050509190803590602001908201803590602001908080602002602001604051908101604052809392919081815260200183836020028082843782019150505050505091908035906020019082018035906020019080806020026020016040519081016040528093929190818152602001838360200280828437820191505050505050919080359060200190820180359060200190808060200260200160405190810160405280939291908181526020018383602002808284378201915050505050509190803590602001908201803590602001908080602002602001604051908101604052809392919081815260200183836020028082843782019150505050505091905050610aaf565b005b341561054357600080fd5b61054b610d5f565b6040518082815260200191505060405180910390f35b6105696117bf565b60038054806020026020016040519081016040528092919081815260200182805480156105b557602002820191906000526020600020905b8154815260200190600101908083116105a1575b5050505050905090565b60008080549050905090565b600080600091505b845182101561077d57600090505b835181101561077057600585838151811015156105fa57fe5b9060200190602002015181548110151561061057fe5b9060005260206000209001848281518110151561062957fe5b9060200190602002015181548110151561063f57fe5b9060005260206000209001548310156106c557826005868481518110151561066357fe5b9060200190602002015181548110151561067957fe5b9060005260206000209001858381518110151561069257fe5b906020019060200201518154811015156106a857fe5b9060005260206000209001600082825403925050819055506106fe565b6106fd85838151811015156106d657fe5b9060200190602002015185838151811015156106ee57fe5b90602001906020020151610d68565b5b6005858381518110151561070e57fe5b9060200190602002015181548110151561072457fe5b9060005260206000209001848281518110151561073d57fe5b9060200190602002015181548110151561075357fe5b9060005260206000209001548303925080806001019150506105e1565b81806001019250506105d3565b5050505050565b61078c6117d3565b600080548060200260200160405190810160405280929190818152602001828054801561080e57602002820191906000526020600020905b8160009054906101000a900473ffffffffffffffffffffffffffffffffffffffff1673ffffffffffffffffffffffffffffffffffffffff16815260200190600101908083116107c4575b5050505050905090565b60015481565b6108266117d3565b60048281548110151561083557fe5b90600052602060002090018054806020026020016040519081016040528092919081815260200182805480156108c057602002820191906000526020600020905b8160009054906101000a900473ffffffffffffffffffffffffffffffffffffffff1673ffffffffffffffffffffffffffffffffffffffff1681526020019060010190808311610876575b50505050509050919050565b60008090505b6006868154811015156108e157fe5b90600052602060002090015481101561098c5760058681548110151561090357fe5b90600052602060002090018181548110151561091b57fe5b9060005260206000209001548510151561093e576109398682610d68565b61097f565b8460058781548110151561094e57fe5b90600052602060002090018281548110151561096657fe5b9060005260206000209001600082825403925050819055505b80806001019150506108d2565b600060068781548110151561099d57fe5b90600052602060002090015414156109b9576109b886610f11565b5b620f4240828401858702028115156109cd57fe5b046003878154811015156109dd57fe5b906000526020600020900160008282540392505081905550505050505050565b6000808414151515610a0e57600080fd5b600087111515610a1d57600080fd5b620f424082840185890202811515610a3157fe5b0490507fffffffffffffffffffffffffffffffffffffffffffffffffffffffffffffffff891415610a6e57610a698a8983898b611185565b610aa3565b8060038a815481101515610a7e57fe5b906000526020600020900160008282540192505081905550610aa289878988611563565b5b50505050505050505050565b60008060008092505b8751831015610d5557600091505b8551821015610d485760058884815181101515610adf57fe5b90602001906020020151815481101515610af557fe5b90600052602060002090018784815181101515610b0e57fe5b90602001906020020151815481101515610b2457fe5b9060005260206000209001549050808483815181101515610b4157fe5b90602001906020020151101515610c30578582815181101515610b6057fe5b9060200190602002015160048985815181101515610b7a57fe5b90602001906020020151815481101515610b9057fe5b90600052602060002090018885815181101515610ba957fe5b90602001906020020151815481101515610bbf57fe5b906000526020600020900160006101000a81548173ffffffffffffffffffffffffffffffffffffffff021916908373ffffffffffffffffffffffffffffffffffffffff160217905550808483815181101515610c1757fe5b9060200190602002018181510391508181525050610d48565b8382815181101515610c3e57fe5b9060200190602002015160058985815181101515610c5857fe5b90602001906020020151815481101515610c6e57fe5b90600052602060002090018885815181101515610c8757fe5b90602001906020020151815481101515610c9d57fe5b906000526020600020900160008282540392505081905550610d1d8884815181101515610cc657fe5b906020019060200201518784815181101515610cde57fe5b906020019060200201518685815181101515610cf657fe5b906020019060200201518886815181101515610d0e57fe5b90602001906020020151611563565b60008483815181101515610d2d57fe5b90602001906020020181815250508180600101925050610ac6565b8280600101935050610ab8565b5050505050505050565b60006015905090565b60006001600684815481101515610d7b57fe5b906000526020600020900154039050600483815481101515610d9957fe5b906000526020600020900181815481101515610db157fe5b906000526020600020900160009054906101000a900473ffffffffffffffffffffffffffffffffffffffff16600484815481101515610dec57fe5b906000526020600020900183815481101515610e0457fe5b906000526020600020900160006101000a81548173ffffffffffffffffffffffffffffffffffffffff021916908373ffffffffffffffffffffffffffffffffffffffff160217905550600583815481101515610e5c57fe5b906000526020600020900181815481101515610e7457fe5b906000526020600020900154600584815481101515610e8f57fe5b906000526020600020900183815481101515610ea757fe5b9060005260206000209001819055506001600684815481101515610ec757fe5b9060005260206000209001600082825403925050819055506000600684815481101515610ef057fe5b9060005260206000209001541415610f0c57610f0b83610f11565b5b505050565b600060018054039050600081815481101515610f2957fe5b906000526020600020900160009054906101000a900473ffffffffffffffffffffffffffffffffffffffff16600083815481101515610f6457fe5b906000526020600020900160006101000a81548173ffffffffffffffffffffffffffffffffffffffff021916908373ffffffffffffffffffffffffffffffffffffffff160217905550600281815481101515610fbc57fe5b906000526020600020900160009054906101000a900473ffffffffffffffffffffffffffffffffffffffff16600283815481101515610ff757fe5b906000526020600020900160006101000a81548173ffffffffffffffffffffffffffffffffffffffff021916908373ffffffffffffffffffffffffffffffffffffffff16021790555060038181548110151561104f57fe5b90600052602060002090015460038381548110151561106a57fe5b90600052602060002090018190555060048181548110151561108857fe5b90600052602060002090016004838154811015156110a257fe5b90600052602060002090019080546110bb9291906117e7565b506005818154811015156110cb57fe5b90600052602060002090016005838154811015156110e557fe5b90600052602060002090019080546110fe929190611839565b5060068181548110151561110e57fe5b90600052602060002090015460068381548110151561112957fe5b90600052602060002090018190555060078181548110151561114757fe5b90600052602060002090015460078381548110151561116257fe5b906000526020600020900181905550600180600082825403925050819055505050565b60088054806001018281611199919061188b565b9160005260206000209001600084909190916101000a81548173ffffffffffffffffffffffffffffffffffffffff021916908373ffffffffffffffffffffffffffffffffffffffff16021790555050600980548060010182816111fc91906118b7565b91600052602060002090016000839091909150555060015460008054905011156113995784600060015481548110151561123257fe5b906000526020600020900160006101000a81548173ffffffffffffffffffffffffffffffffffffffff021916908373ffffffffffffffffffffffffffffffffffffffff16021790555083600260015481548110151561128d57fe5b906000526020600020900160006101000a81548173ffffffffffffffffffffffffffffffffffffffff021916908373ffffffffffffffffffffffffffffffffffffffff1602179055508260036001548154811015156112e857fe5b9060005260206000209001819055506008600460015481548110151561130a57fe5b90600052602060002090019080546113239291906117e7565b506009600560015481548110151561133757fe5b9060005260206000209001908054611350929190611839565b506001600660015481548110151561136457fe5b90600052602060002090018190555042600760015481548110151561138557fe5b90600052602060002090018190555061154c565b600080548060010182816113ad919061188b565b9160005260206000209001600087909190916101000a81548173ffffffffffffffffffffffffffffffffffffffff021916908373ffffffffffffffffffffffffffffffffffffffff1602179055505060028054806001018281611410919061188b565b9160005260206000209001600086909190916101000a81548173ffffffffffffffffffffffffffffffffffffffff021916908373ffffffffffffffffffffffffffffffffffffffff160217905550506003805480600101828161147391906118b7565b9160005260206000209001600085909190915055506004805480600101828161149c91906118e3565b91600052602060002090016000600890919091509080546114be9291906117e7565b5050600580548060010182816114d4919061190f565b91600052602060002090016000600990919091509080546114f6929190611839565b50506006805480600101828161150c91906118b7565b916000526020600020900160006001909190915055506007805480600101828161153691906118b7565b9160005260206000209001600042909190915055505b600180600082825401925050819055505050505050565b6000811215156115b2578160058581548110151561157d57fe5b90600052602060002090018281548110151561159557fe5b9060005260206000209001600082825401925050819055506117b9565b6006848154811015156115c157fe5b9060005260206000209001546004858154811015156115dc57fe5b90600052602060002090018054905011156116d2578260048581548110151561160157fe5b906000526020600020900160068681548110151561161b57fe5b90600052602060002090015481548110151561163357fe5b906000526020600020900160006101000a81548173ffffffffffffffffffffffffffffffffffffffff021916908373ffffffffffffffffffffffffffffffffffffffff1602179055508160058581548110151561168c57fe5b90600052602060002090016006868154811015156116a657fe5b9060005260206000209001548154811015156116be57fe5b90600052602060002090018190555061178f565b6004848154811015156116e157fe5b906000526020600020900180548060010182816116fe919061188b565b9160005260206000209001600085909190916101000a81548173ffffffffffffffffffffffffffffffffffffffff021916908373ffffffffffffffffffffffffffffffffffffffff1602179055505060058481548110151561175c57fe5b9060005260206000209001805480600101828161177991906118b7565b9160005260206000209001600084909190915055505b60016006858154811015156117a057fe5b9060005260206000209001600082825401925050819055505b50505050565b602060405190810160405280600081525090565b602060405190810160405280600081525090565b8280548282559060005260206000209081019282156118285760005260206000209182015b8281111561182757825482559160010191906001019061180c565b5b509050611835919061193b565b5090565b82805482825590600052602060002090810192821561187a5760005260206000209182015b8281111561187957825482559160010191906001019061185e565b5b509050611887919061197e565b5090565b8154818355818115116118b2578183600052602060002091820191016118b1919061197e565b5b505050565b8154818355818115116118de578183600052602060002091820191016118dd919061197e565b5b505050565b81548183558181151161190a5781836000526020600020918201910161190991906119a3565b5b505050565b8154818355818115116119365781836000526020600020918201910161193591906119cf565b5b505050565b61197b91905b8082111561197757600081816101000a81549073ffffffffffffffffffffffffffffffffffffffff021916905550600101611941565b5090565b90565b6119a091905b8082111561199c576000816000905550600101611984565b5090565b90565b6119cc91905b808211156119c857600081816119bf91906119fb565b506001016119a9565b5090565b90565b6119f891905b808211156119f457600081816119eb9190611a1c565b506001016119d5565b5090565b90565b5080546000825590600052602060002090810190611a19919061197e565b50565b5080546000825590600052602060002090810190611a3a919061197e565b505600a165627a7a7230582025d0548062772a7d0a8022c96182066e0e2c45bf559042eb1daddfd2652036080029",
  "source": "pragma solidity ^0.4.19;\n\nimport \"./ERC20.sol\";\nimport \"./math.sol\";\n\ncontract Spot is DSMath{\n\taddress[]\tborrowers;\n\tuint \t\tpublic borrLength;\n\taddress[] \ttokens;\n\tuint[]\t\tamountEther; \n\taddress[][]\tlenders;\n\tuint[][]\tamounts;\n\tuint[] \t\tlendLength;\n\tuint[] \t\tcreatedAt;\n\n\tevent Log(uint a);\n\n\tfunction test() public view returns (uint) {\n\t\treturn 21;\n\t}\n\tfunction getTraders() public view returns (address[]) {\n\t\treturn borrowers;\n\t}\n\tfunction getTradersAmounts() public view returns (uint[]) {\n\t\treturn amountEther;\n\t}\t\n\tfunction getLenders(uint idx) public view returns (address[]) {\n\t\treturn lenders[idx];\n\t}\t\n\tfunction getBorrowersLength() public view returns (uint) {\n\t\treturn borrowers.length;\n\t}\t\n\n\tfunction Lock(\n\t\taddress\tborrower,\n\t\tint \tborrTokIdx,\n\t\taddress token, \t\n\t\tuint\tx1Amount,\n\t\taddress lender,\n\t\tint \tlenderIdx,\n\t\tuint \trate,\t\t// times 100\n\t\tuint \tfee,\t\t// basis (10000)\n\t\tuint \tmargin\t\t// basis\n\t) public {\n\t\trequire(rate != 0);\n\t\trequire(x1Amount > 0);\n\t\tuint ethAmount = x1Amount*rate*(fee + margin)/1000000;\n\t\tif (borrTokIdx == -1) {\n\t\t\taddBorrowerLock(\n\t\t\t\tborrower,\n\t\t\t\ttoken, \t\n\t\t\t\tethAmount,\n\t\t\t\tlender,\n\t\t\t\tx1Amount\n\t\t\t);\n\t\t}\n\t\telse {\n\t\t\tamountEther[uint(borrTokIdx)] += ethAmount;\n\t\t\taddLender(\n\t\t\t\tuint(borrTokIdx),\n\t\t\t\tlender,\n\t\t\t\tx1Amount,\n\t\t\t\tlenderIdx\n\t\t\t);\n\t\t}\n\n\t\t// Transfer WETH from borrower to this\t\t\n\t\t// ERC20(WEth).transferFrom(\n\t\t// \tborrower, \n\t\t// \tthis,\n\t\t// \tethAmount\n\t\t// );\n\t\t// // Transfer base to borrower\n\t\t// ERC20(token).transferFrom(\n\t\t// \tlender,\n\t\t// \tborrower, \n\t\t// \tx1Amount\n\t\t// );\n\t}\n\t\n\tfunction BuyToCover(\n\t\tuint borrTokIdx, \n\t\tuint amount,\n\t\tuint rate,\t\t// percent \t(100)\n\t\tuint fee,\t\t// basis \t(10000)\n\t\tuint margin\t\t// basis\t(10000)\n\t) public {\n\t\tfor (uint i=0; i<lendLength[borrTokIdx]; i++) {\n\t\t\tif(amount >= amounts[borrTokIdx][i]) {\n\t\t\t\t// TODO: Transfer to lender amounts[borrTokIdx][i] \n\t\t\t\tdeleteLender(borrTokIdx, i);\n\t\t\t}\n\t\t\telse {\n\t\t\t\t// TODO: Transfer to lender amount\n\t\t\t\tamounts[borrTokIdx][i] -= amount;\n\t\t\t}\n\t\t}\n\t\tif (lendLength[borrTokIdx] == 0) {\n\t\t\tdeleteBorrowerLock(borrTokIdx);\n\t\t}\n\t\tamountEther[borrTokIdx] -= amount*rate*(fee + margin)/1000000;\n\t\t// TODO: Transfer funds to trader\n\t}\n\n\tfunction Swap(\n\t\tuint[]\t\tborrTokIdx,\n\t\tuint[]\t\tlenderIdx,\n\t\taddress[]\tnewLenders,\n\t\tint[]\t\tnewLendersIdx,\n\t\tuint[] \t\tamts\n\t) public {\n\t\tfor (uint i=0; i<borrTokIdx.length; i++) {\n\t\t\tfor (uint j=0; j<newLenders.length; j++) {\n\t\t\t\tuint amt = amounts[borrTokIdx[i]][lenderIdx[i]];\n\t\t\t\tif (amts[j] >= amt) {\n\t\t\t\t\tlenders[borrTokIdx[i]][lenderIdx[i]] = newLenders[j];\n\t\t\t\t\tamts[j] -= amt;\n\t\t\t\t\t// TODO: Transfer X1 \n\t\t\t\t\tbreak;\n\t\t\t\t}\n\t\t\t\telse {\n\t\t\t\t\tamounts[borrTokIdx[i]][lenderIdx[i]] -= amts[j];\n\t\t\t\t\taddLender(\n\t\t\t\t\t\tborrTokIdx[i],\n\t\t\t\t\t\tnewLenders[j],\n\t\t\t\t\t\tamts[j],\n\t\t\t\t\t\tnewLendersIdx[j]\n\t\t\t\t\t);\n\t\t\t\t\tamts[j] = 0;\n\t\t\t\t\t// TODO: Transfer X1 \n\t\t\t\t}\n\t\t\t}\n\t\t}\n\t}\n\n\tfunction Recall(\n\t\tuint[]\t\tborrTokIdx,\n\t\tuint[]\t\tlenderIdx,\n\t\tuint \t\tamount\n\t) public {\n\t\tfor(uint i=0; i<borrTokIdx.length; i++){\n\t\t\tfor(uint j=0; j<lenderIdx.length; j++){\n\t\t\t\t// TODO: Save info about funds to transfer\t\t\t\t\n\t\t\t\tif (amount < amounts[borrTokIdx[i]][lenderIdx[j]]) {\n\t\t\t\t\tamounts[borrTokIdx[i]][lenderIdx[j]] -= amount;\n\t\t\t\t}\n\t\t\t\telse {\n\t\t\t\t\tdeleteLender(borrTokIdx[i], lenderIdx[j]);\n\t\t\t\t}\n\t\t\t\tamount -= amounts[borrTokIdx[i]][lenderIdx[j]];\n\t\t\t}\n\t\t}\n\t\t// TODO: Transfer funds to lender\n\t}\n\n\t// function MarginCall(\n\t// \taddress token,\n\t// \taddress borrower,\n\t// \tbytes32 r, \n\t// \tbytes32 s,\n\t// \tuint8 \tv, \n\t// \tuint \trate,\t\t// percent \t(100)\n\t// \tuint \tfee,\t\t// basis \t(10000)\n\t// \tuint \tmargin\t\t// basis\t(10000)) \n\t// ) public {\n\t// \tbytes32 message = keccak256(rate + fee + margin);\n\t// \trequire(ecrecover(message, v, r, s) == address(0x0)); // Oracle address here\n\t// }\n\n\taddress[] lenderArr;\n\tuint[] amtArr;\n\tfunction addBorrowerLock(\n\t\taddress\tborrower,\n\t\taddress token, \t\n\t\tuint\tethAmount,\n\t\taddress lender,\n\t\tuint \tx1Amount\n\t) internal {\n\t\tlenderArr.push(lender);\n\t\tamtArr.push(x1Amount);\n\t\tif (borrowers.length > borrLength) {\n\t\t\tborrowers[borrLength] = borrower;\n\t\t\ttokens[borrLength] = token;\n\t\t\tamountEther[borrLength] = ethAmount;\n\t\t\tlenders[borrLength] = lenderArr;\n\t\t\tamounts[borrLength] = amtArr;\n\t\t\tlendLength[borrLength] = 1;\n\t\t\tcreatedAt[borrLength] = now;\n\t\t}\n\t\telse {\n\t\t\tborrowers.push(borrower);\n\t\t\ttokens.push(token);\n\t\t\tamountEther.push(ethAmount);\n\t\t\tlenders.push(lenderArr);\n\t\t\tamounts.push(amtArr);\n\t\t\tlendLength.push(1);\n\t\t\tcreatedAt.push(now);\t\t\t\n\t\t}\n\t\tborrLength += 1;\n\t}\n\n\tfunction addLender(\n\t\tuint \tborrTokIdx,\n\t\taddress lender,\n\t\tuint \tx1Amount,\n\t\tint \tlenderIdx\n\t) internal {\n\t\tif (lenderIdx >= 0) {\n\t\t\tamounts[borrTokIdx][uint(lenderIdx)] += x1Amount;\n\t\t}\n\t\telse {\n\t\t\tif (lenders[borrTokIdx].length > lendLength[borrTokIdx]) {\n\t\t\t\tlenders[borrTokIdx][lendLength[borrTokIdx]] = lender;\n\t\t\t\tamounts[borrTokIdx][lendLength[borrTokIdx]] = x1Amount;\n\t\t\t}\n\t\t\telse {\n\t\t\t\tlenders[borrTokIdx].push(lender);\n\t\t\t\tamounts[borrTokIdx].push(x1Amount);\n\t\t\t}\n\t\t\tlendLength[borrTokIdx] += 1;\n\t\t}\n\t}\n\n\tfunction deleteLender(\n\t\tuint \tborrTokIdx,\n\t\tuint \tlIdx\n\t) internal {\n\t\tuint lastIdx = lendLength[borrTokIdx]-1;\n\t\tlenders[borrTokIdx][lIdx] = lenders[borrTokIdx][lastIdx];\n\t\tamounts[borrTokIdx][lIdx] = amounts[borrTokIdx][lastIdx];\n\t\tlendLength[borrTokIdx] -= 1;\n\t\tif(lendLength[borrTokIdx] == 0) {\n\t\t\tdeleteBorrowerLock(borrTokIdx);\n\t\t}\n\t}\n\n\tfunction deleteBorrowerLock(\n\t\tuint \tborrTokIdx\n\t) internal {\n\t\tuint lastIdx = borrLength-1;\n\t\tborrowers[borrTokIdx] = borrowers[lastIdx];\n\t\ttokens[borrTokIdx] = tokens[lastIdx];\n\t\tamountEther[borrTokIdx] = amountEther[lastIdx];\n\t\tlenders[borrTokIdx] = lenders[lastIdx];\n\t\tamounts[borrTokIdx] = amounts[lastIdx];\n\t\tlendLength[borrTokIdx] = lendLength[lastIdx];\n\t\tcreatedAt[borrTokIdx] = createdAt[lastIdx];\n\t\tborrLength -= 1;\n\t}\n}\n",
  "sourcePath": "/Users/marat/work/spotnetio/contracts/contracts/Spot.sol",
  "compiler": {
    "name": "solc",
    "version": "0.4.19+commit.c4cbbb05.Emscripten.clang"
  },
  "schemaVersion": "2.0.0",
  "updatedAt": "2018-04-20T04:24:22.282Z"
}