{
  "contractName": "Spot",
  "abi": [
    {
      "anonymous": false,
      "inputs": [
        {
          "indexed": false,
          "name": "a",
          "type": "uint256"
        }
      ],
      "name": "Log",
      "type": "event"
    },
    {
      "constant": false,
      "inputs": [
        {
          "name": "token",
          "type": "address"
        },
        {
          "name": "lender",
          "type": "address"
        },
        {
          "name": "borrower",
          "type": "address"
        },
        {
          "name": "ethAmount",
          "type": "uint256"
        },
        {
          "name": "rate",
          "type": "uint256"
        },
        {
          "name": "fee",
          "type": "uint256"
        },
        {
          "name": "margin",
          "type": "uint256"
        }
      ],
      "name": "Lock",
      "outputs": [],
      "payable": false,
      "stateMutability": "nonpayable",
      "type": "function"
    },
    {
      "constant": false,
      "inputs": [
        {
          "name": "token",
          "type": "address"
        },
        {
          "name": "borrower",
          "type": "address"
        },
        {
          "name": "rate",
          "type": "uint256"
        },
        {
          "name": "fee",
          "type": "uint256"
        },
        {
          "name": "margin",
          "type": "uint256"
        }
      ],
      "name": "BuyToCover",
      "outputs": [],
      "payable": false,
      "stateMutability": "nonpayable",
      "type": "function"
    },
    {
      "constant": false,
      "inputs": [
        {
          "name": "token",
          "type": "address"
        },
        {
          "name": "lender",
          "type": "address"
        },
        {
          "name": "lenders",
          "type": "address[]"
        },
        {
          "name": "rate",
          "type": "uint256"
        },
        {
          "name": "fee",
          "type": "uint256"
        },
        {
          "name": "margin",
          "type": "uint256"
        }
      ],
      "name": "SwapLenders",
      "outputs": [],
      "payable": false,
      "stateMutability": "nonpayable",
      "type": "function"
    },
    {
      "constant": false,
      "inputs": [
        {
          "name": "token",
          "type": "address"
        },
        {
          "name": "borrower",
          "type": "address"
        },
        {
          "name": "r",
          "type": "bytes32"
        },
        {
          "name": "s",
          "type": "bytes32"
        },
        {
          "name": "v",
          "type": "uint8"
        },
        {
          "name": "rate",
          "type": "uint256"
        },
        {
          "name": "fee",
          "type": "uint256"
        },
        {
          "name": "margin",
          "type": "uint256"
        }
      ],
      "name": "MarginCall",
      "outputs": [],
      "payable": false,
      "stateMutability": "nonpayable",
      "type": "function"
    },
    {
      "constant": true,
      "inputs": [
        {
          "name": "token",
          "type": "address"
        },
        {
          "name": "lender",
          "type": "address"
        },
        {
          "name": "borrower",
          "type": "address"
        }
      ],
      "name": "getLock",
      "outputs": [
        {
          "name": "",
          "type": "uint256"
        },
        {
          "name": "",
          "type": "uint256"
        }
      ],
      "payable": false,
      "stateMutability": "view",
      "type": "function"
    },
    {
      "constant": true,
      "inputs": [
        {
          "name": "token",
          "type": "address"
        },
        {
          "name": "lender",
          "type": "address"
        }
      ],
      "name": "getLockLender",
      "outputs": [
        {
          "name": "",
          "type": "uint256"
        }
      ],
      "payable": false,
      "stateMutability": "view",
      "type": "function"
    }
  ],
  "bytecode": "0x60606040526000600160006101000a81548173ffffffffffffffffffffffffffffffffffffffff021916908373ffffffffffffffffffffffffffffffffffffffff160217905550341561005157600080fd5b611972806100606000396000f300606060405260043610610078576000357c0100000000000000000000000000000000000000000000000000000000900463ffffffff1680631a9b00121461007d5780634edccfb214610118578063541875091461018b5780636bdaf6711461021d57806393c7de82146102d05780639fdcfd1414610369575b600080fd5b341561008857600080fd5b610116600480803573ffffffffffffffffffffffffffffffffffffffff1690602001909190803573ffffffffffffffffffffffffffffffffffffffff1690602001909190803573ffffffffffffffffffffffffffffffffffffffff169060200190919080359060200190919080359060200190919080359060200190919080359060200190919050506103d5565b005b341561012357600080fd5b610189600480803573ffffffffffffffffffffffffffffffffffffffff1690602001909190803573ffffffffffffffffffffffffffffffffffffffff16906020019091908035906020019091908035906020019091908035906020019091905050610786565b005b341561019657600080fd5b610200600480803573ffffffffffffffffffffffffffffffffffffffff1690602001909190803573ffffffffffffffffffffffffffffffffffffffff1690602001909190803573ffffffffffffffffffffffffffffffffffffffff16906020019091905050610c75565b604051808381526020018281526020019250505060405180910390f35b341561022857600080fd5b6102ce600480803573ffffffffffffffffffffffffffffffffffffffff1690602001909190803573ffffffffffffffffffffffffffffffffffffffff1690602001909190803590602001908201803590602001908080602002602001604051908101604052809392919081815260200183836020028082843782019150505050505091908035906020019091908035906020019091908035906020019091905050610e20565b005b34156102db57600080fd5b610367600480803573ffffffffffffffffffffffffffffffffffffffff1690602001909190803573ffffffffffffffffffffffffffffffffffffffff16906020019091908035600019169060200190919080356000191690602001909190803560ff16906020019091908035906020019091908035906020019091908035906020019091905050611395565b005b341561037457600080fd5b6103bf600480803573ffffffffffffffffffffffffffffffffffffffff1690602001909190803573ffffffffffffffffffffffffffffffffffffffff16906020019091905050611775565b6040518082815260200191505060405180910390f35b60008084141515156103e657600080fd5b6000851115156103f557600080fd5b818301840285620f42400281151561040957fe5b0490506000808973ffffffffffffffffffffffffffffffffffffffff1673ffffffffffffffffffffffffffffffffffffffff168152602001908152602001600020805480600101828161045c9190611897565b916000526020600020906004020160006080604051908101604052808b73ffffffffffffffffffffffffffffffffffffffff1681526020018a73ffffffffffffffffffffffffffffffffffffffff16815260200185815260200189815250909190915060008201518160000160006101000a81548173ffffffffffffffffffffffffffffffffffffffff021916908373ffffffffffffffffffffffffffffffffffffffff16021790555060208201518160010160006101000a81548173ffffffffffffffffffffffffffffffffffffffff021916908373ffffffffffffffffffffffffffffffffffffffff1602179055506040820151816002015560608201518160030155505050600160009054906101000a900473ffffffffffffffffffffffffffffffffffffffff1673ffffffffffffffffffffffffffffffffffffffff166323b872dd8730886000604051602001526040518463ffffffff167c0100000000000000000000000000000000000000000000000000000000028152600401808473ffffffffffffffffffffffffffffffffffffffff1673ffffffffffffffffffffffffffffffffffffffff1681526020018373ffffffffffffffffffffffffffffffffffffffff1673ffffffffffffffffffffffffffffffffffffffff1681526020018281526020019350505050602060405180830381600087803b151561066557600080fd5b6102c65a03f1151561067657600080fd5b50505060405180519050508773ffffffffffffffffffffffffffffffffffffffff166323b872dd8888846000604051602001526040518463ffffffff167c0100000000000000000000000000000000000000000000000000000000028152600401808473ffffffffffffffffffffffffffffffffffffffff1673ffffffffffffffffffffffffffffffffffffffff1681526020018373ffffffffffffffffffffffffffffffffffffffff1673ffffffffffffffffffffffffffffffffffffffff1681526020018281526020019350505050602060405180830381600087803b151561076057600080fd5b6102c65a03f1151561077157600080fd5b50505060405180519050505050505050505050565b6000806000808873ffffffffffffffffffffffffffffffffffffffff1673ffffffffffffffffffffffffffffffffffffffff1681526020019081526020016000209150600090505b8180549050811015610c6c573373ffffffffffffffffffffffffffffffffffffffff1682828154811015156107ff57fe5b906000526020600020906004020160010160009054906101000a900473ffffffffffffffffffffffffffffffffffffffff1673ffffffffffffffffffffffffffffffffffffffff161415610c5f57818181548110151561085b57fe5b9060005260206000209060040201600201548773ffffffffffffffffffffffffffffffffffffffff1663dd62ed3e33306000604051602001526040518363ffffffff167c0100000000000000000000000000000000000000000000000000000000028152600401808373ffffffffffffffffffffffffffffffffffffffff1673ffffffffffffffffffffffffffffffffffffffff1681526020018273ffffffffffffffffffffffffffffffffffffffff1673ffffffffffffffffffffffffffffffffffffffff16815260200192505050602060405180830381600087803b151561094457600080fd5b6102c65a03f1151561095557600080fd5b505050604051805190501015151561096c57600080fd5b8673ffffffffffffffffffffffffffffffffffffffff166323b872dd33848481548110151561099757fe5b906000526020600020906004020160000160009054906101000a900473ffffffffffffffffffffffffffffffffffffffff1685858154811015156109d757fe5b9060005260206000209060040201600201546000604051602001526040518463ffffffff167c0100000000000000000000000000000000000000000000000000000000028152600401808473ffffffffffffffffffffffffffffffffffffffff1673ffffffffffffffffffffffffffffffffffffffff1681526020018373ffffffffffffffffffffffffffffffffffffffff1673ffffffffffffffffffffffffffffffffffffffff1681526020018281526020019350505050602060405180830381600087803b1515610aa957600080fd5b6102c65a03f11515610aba57600080fd5b5050506040518051905050600160009054906101000a900473ffffffffffffffffffffffffffffffffffffffff1673ffffffffffffffffffffffffffffffffffffffff1663a9059cbb87620f4240868801898787815481101515610b1a57fe5b9060005260206000209060040201600201540202811515610b3757fe5b046000604051602001526040518363ffffffff167c0100000000000000000000000000000000000000000000000000000000028152600401808373ffffffffffffffffffffffffffffffffffffffff1673ffffffffffffffffffffffffffffffffffffffff16815260200182815260200192505050602060405180830381600087803b1515610bc557600080fd5b6102c65a03f11515610bd657600080fd5b50505060405180519050508181815481101515610bef57fe5b9060005260206000209060040201600080820160006101000a81549073ffffffffffffffffffffffffffffffffffffffff02191690556001820160006101000a81549073ffffffffffffffffffffffffffffffffffffffff02191690556002820160009055600382016000905550505b80806001019150506107ce565b50505050505050565b6000806000806000806000808a73ffffffffffffffffffffffffffffffffffffffff1673ffffffffffffffffffffffffffffffffffffffff1681526020019081526020016000209150600090505b8180549050811015610e0e578773ffffffffffffffffffffffffffffffffffffffff168282815481101515610cf457fe5b906000526020600020906004020160000160009054906101000a900473ffffffffffffffffffffffffffffffffffffffff1673ffffffffffffffffffffffffffffffffffffffff16148015610db357508673ffffffffffffffffffffffffffffffffffffffff168282815481101515610d6957fe5b906000526020600020906004020160010160009054906101000a900473ffffffffffffffffffffffffffffffffffffffff1673ffffffffffffffffffffffffffffffffffffffff16145b15610e01578181815481101515610dc657fe5b906000526020600020906004020160020154840193508181815481101515610dea57fe5b906000526020600020906004020160030154830192505b8080600101915050610cc3565b83839550955050505050935093915050565b6000806000806000806000808d73ffffffffffffffffffffffffffffffffffffffff1673ffffffffffffffffffffffffffffffffffffffff1681526020019081526020016000209550600094505b8580549050851015611387578a73ffffffffffffffffffffffffffffffffffffffff168686815481101515610e9f57fe5b906000526020600020906004020160000160009054906101000a900473ffffffffffffffffffffffffffffffffffffffff1673ffffffffffffffffffffffffffffffffffffffff16141561137a57600093505b8951841015611379578b73ffffffffffffffffffffffffffffffffffffffff1663dd62ed3e8b86815181101515610f2557fe5b90602001906020020151306000604051602001526040518363ffffffff167c0100000000000000000000000000000000000000000000000000000000028152600401808373ffffffffffffffffffffffffffffffffffffffff1673ffffffffffffffffffffffffffffffffffffffff1681526020018273ffffffffffffffffffffffffffffffffffffffff1673ffffffffffffffffffffffffffffffffffffffff16815260200192505050602060405180830381600087803b1515610fe957600080fd5b6102c65a03f11515610ffa57600080fd5b505050604051805190509250600083111561136c5761103883878781548110151561102157fe5b90600052602060002090600402016002015461187d565b9150620f42408789018a84020281151561104e57fe5b04905081868681548110151561106057fe5b90600052602060002090600402016002016000828254039250508190555080868681548110151561108d57fe5b9060005260206000209060040201600301600082825403925050819055506000808d73ffffffffffffffffffffffffffffffffffffffff1673ffffffffffffffffffffffffffffffffffffffff16815260200190815260200160002080548060010182816110fb9190611897565b916000526020600020906004020160006080604051908101604052808e8981518110151561112557fe5b9060200190602002015173ffffffffffffffffffffffffffffffffffffffff1681526020018a8a81548110151561115857fe5b906000526020600020906004020160010160009054906101000a900473ffffffffffffffffffffffffffffffffffffffff1673ffffffffffffffffffffffffffffffffffffffff16815260200186815260200185815250909190915060008201518160000160006101000a81548173ffffffffffffffffffffffffffffffffffffffff021916908373ffffffffffffffffffffffffffffffffffffffff16021790555060208201518160010160006101000a81548173ffffffffffffffffffffffffffffffffffffffff021916908373ffffffffffffffffffffffffffffffffffffffff16021790555060408201518160020155606082015181600301555050508b73ffffffffffffffffffffffffffffffffffffffff166323b872dd8b8681518110151561128357fe5b906020019060200201518d856000604051602001526040518463ffffffff167c0100000000000000000000000000000000000000000000000000000000028152600401808473ffffffffffffffffffffffffffffffffffffffff1673ffffffffffffffffffffffffffffffffffffffff1681526020018373ffffffffffffffffffffffffffffffffffffffff1673ffffffffffffffffffffffffffffffffffffffff1681526020018281526020019350505050602060405180830381600087803b151561134f57600080fd5b6102c65a03f1151561136057600080fd5b50505060405180519050505b8380600101945050610ef2565b5b8480600101955050610e6e565b505050505050505050505050565b600080600083858701016040518082815260200191505060405180910390209250600073ffffffffffffffffffffffffffffffffffffffff16600184898c8c604051600081526020016040526000604051602001526040518085600019166000191681526020018460ff1660ff16815260200183600019166000191681526020018260001916600019168152602001945050505050602060405160208103908084039060008661646e5a03f1151561144c57600080fd5b50506020604051035173ffffffffffffffffffffffffffffffffffffffff1614151561147757600080fd5b6000808c73ffffffffffffffffffffffffffffffffffffffff1673ffffffffffffffffffffffffffffffffffffffff1681526020019081526020016000209150600090505b8180549050811015611768578973ffffffffffffffffffffffffffffffffffffffff1682828154811015156114ed57fe5b906000526020600020906004020160010160009054906101000a900473ffffffffffffffffffffffffffffffffffffffff1673ffffffffffffffffffffffffffffffffffffffff16141561175b57620f424084860187848481548110151561155157fe5b906000526020600020906004020160020154020281151561156e57fe5b04828281548110151561157d57fe5b906000526020600020906004020160030154101561175a57600160009054906101000a900473ffffffffffffffffffffffffffffffffffffffff1673ffffffffffffffffffffffffffffffffffffffff1663a9059cbb83838154811015156115e157fe5b906000526020600020906004020160000160009054906101000a900473ffffffffffffffffffffffffffffffffffffffff16848481548110151561162157fe5b9060005260206000209060040201600301546000604051602001526040518363ffffffff167c0100000000000000000000000000000000000000000000000000000000028152600401808373ffffffffffffffffffffffffffffffffffffffff1673ffffffffffffffffffffffffffffffffffffffff16815260200182815260200192505050602060405180830381600087803b15156116c057600080fd5b6102c65a03f115156116d157600080fd5b505050604051805190505081818154811015156116ea57fe5b9060005260206000209060040201600080820160006101000a81549073ffffffffffffffffffffffffffffffffffffffff02191690556001820160006101000a81549073ffffffffffffffffffffffffffffffffffffffff02191690556002820160009055600382016000905550505b5b80806001019150506114bc565b5050505050505050505050565b6000806000806000808773ffffffffffffffffffffffffffffffffffffffff1673ffffffffffffffffffffffffffffffffffffffff1681526020019081526020016000209150600090505b8180549050811015611871578473ffffffffffffffffffffffffffffffffffffffff1682828154811015156117f157fe5b906000526020600020906004020160000160009054906101000a900473ffffffffffffffffffffffffffffffffffffffff1673ffffffffffffffffffffffffffffffffffffffff16141561186457818181548110151561184d57fe5b906000526020600020906004020160020154830192505b80806001019150506117c0565b82935050505092915050565b60008183111561188d578161188f565b825b905092915050565b8154818355818115116118c4576004028160040283600052602060002091820191016118c391906118c9565b5b505050565b61194391905b8082111561193f57600080820160006101000a81549073ffffffffffffffffffffffffffffffffffffffff02191690556001820160006101000a81549073ffffffffffffffffffffffffffffffffffffffff021916905560028201600090556003820160009055506004016118cf565b5090565b905600a165627a7a72305820a1ba191ee324927cad6749fbf397989e323f6b8f9878d2fa06ad265379449b5e0029",
  "source": "pragma solidity ^0.4.19;\n\nimport \"./ERC20.sol\";\nimport \"./math.sol\";\n\ncontract Spot is DSMath{\n\tstruct lock{\n\t\taddress\t\tlender;\n\t\taddress\t\tborrower;\n\t\tuint \t\tamountX1;\n\t\tuint\t\tamountEther; \n\t}\n\tmapping (address => lock[]) locks;\n\n\taddress WEth = address(0x0); // Weth address here\n\n\tevent Log(uint a);\n\n\tfunction Lock(\n\t\taddress token, \n\t\taddress lender, \n\t\taddress\tborrower,\t// WETH address\n\t\tuint\tethAmount,\n\t\tuint \trate,\t\t// times 100\n\t\tuint \tfee,\t\t// basis (10000)\n\t\tuint \tmargin\t\t// basis\n\t) public {\n\t\trequire(rate != 0);\n\t\trequire(ethAmount > 0);\n\t\tuint x1Amount = 1000000*ethAmount/(rate*(fee + margin));\n\t\tlocks[token].push(lock(\n\t\t\tlender, \n\t\t\tborrower, \n\t\t\tx1Amount, \n\t\t\tethAmount\n\t\t));\n\t\t// Transfer WETH from borrower to this\t\t\n\t\tERC20(WEth).transferFrom(\n\t\t\tborrower, \n\t\t\tthis,\n\t\t\tethAmount\n\t\t);\n\t\t// Transfer base to borrower\n\t\tERC20(token).transferFrom(\n\t\t\tlender,\n\t\t\tborrower, \n\t\t\tx1Amount\n\t\t);\n\t}\n\t\n\tfunction BuyToCover(\n\t\taddress token, \n\t\taddress borrower,\n\t\tuint \trate,\t\t// percent \t(100)\n\t\tuint \tfee,\t\t// basis \t(10000)\n\t\tuint \tmargin\t\t// basis\t(10000)\n\t) public {\n\t\tlock[] storage locksForToken = locks[token];\n\t\tfor (uint i=0; i<locksForToken.length; i++) {\n\t\t\tif (locksForToken[i].borrower == msg.sender) {\n\t\t\t\trequire (ERC20(token).allowance(msg.sender, this) >= locksForToken[i].amountX1);\n\t\t\t\tERC20(token).transferFrom(\n\t\t\t\t\tmsg.sender, \n\t\t\t\t\tlocksForToken[i].lender, \n\t\t\t\t\tlocksForToken[i].amountX1\n\t\t\t\t);\n\t\t\t\t// Transfer WETH to borrower from this\t\t\n\t\t\t\tERC20(WEth).transfer(\n\t\t\t\t\tborrower, \n\t\t\t\t\tlocksForToken[i].amountX1*rate*(fee + margin)/1000000\n\t\t\t\t);\n\t\t\t\tdelete locksForToken[i]; // TODO: implement linked list\n\t\t\t}\n\t\t}\n\t}\n\n\tfunction SwapLenders(\n\t\taddress \ttoken, \n\t\taddress\t\tlender,\n\t\taddress[]\tlenders,\n\t\tuint \t\trate,\t\t// percent \t(100)\n\t\tuint \t\tfee,\t\t// basis \t(10000)\n\t\tuint \t\tmargin\t\t// basis\t\t(10000)) \n\t) public {\n\t\tlock[] storage locksForToken = locks[token];\n\t\tfor (uint i=0; i<locksForToken.length; i++) {\n\t\t\tif (locksForToken[i].lender == lender) {\n\t\t\t\tfor (uint j=0; j<lenders.length; j++) {\n\t\t\t\t\tuint allowance = ERC20(token).allowance(\n\t\t\t\t\t\tlenders[j], \n\t\t\t\t\t\tthis\n\t\t\t\t\t);\n\t\t\t\t\tif (allowance > 0) {\n\t\t\t\t\t\tuint x1ToTransfer = min(allowance, locksForToken[i].amountX1);\n\t\t\t\t\t\tuint etherToTransfer = x1ToTransfer*rate*(fee + margin)/1000000;\n\t\t\t\t\t\tlocksForToken[i].amountX1 -= x1ToTransfer;\n\t\t\t\t\t\tlocksForToken[i].amountEther -= etherToTransfer;\n\t\t\t\t\t\tlocks[token].push(lock(\n\t\t\t\t\t\t\tlenders[j], \n\t\t\t\t\t\t\tlocksForToken[i].borrower, \n\t\t\t\t\t\t\tx1ToTransfer, \n\t\t\t\t\t\t\tetherToTransfer\n\t\t\t\t\t\t));\n\t\t\t\t\t\t// Transfer X1 from new lender to old\n\t\t\t\t\t\tERC20(token).transferFrom(\n\t\t\t\t\t\t\tlenders[j], \n\t\t\t\t\t\t\tlender, \n\t\t\t\t\t\t\tx1ToTransfer\n\t\t\t\t\t\t);\n\t\t\t\t\t}\n\t\t\t\t}\n\t\t\t}\n\t\t}\n\t}\n\n\tfunction MarginCall(\n\t\taddress token,\n\t\taddress borrower,\n\t\tbytes32 r, \n\t\tbytes32 s,\n\t\tuint8 \tv, \n\t\tuint \trate,\t\t// percent \t(100)\n\t\tuint \tfee,\t\t// basis \t(10000)\n\t\tuint \tmargin\t\t// basis\t(10000)) \n\t) public {\n\t\tbytes32 message = keccak256(rate + fee + margin);\n\t\trequire(ecrecover(message, v, r, s) == address(0x0)); // Oracle address here\n\t\tlock[] storage locksForToken = locks[token];\n\t\tfor (uint i=0; i<locksForToken.length; i++) {\n\t\t\tif (locksForToken[i].borrower == borrower) {\n\t\t\t\tif(locksForToken[i].amountEther < locksForToken[i].amountX1*rate*(fee + margin)/1000000) {\n\t\t\t\t\t// Send Ether to lender\n\t\t\t\t\tERC20(WEth).transfer(\n\t\t\t\t\t\tlocksForToken[i].lender, \n\t\t\t\t\t\tlocksForToken[i].amountEther\n\t\t\t\t\t);\n\t\t\t\t\tdelete locksForToken[i];\n\t\t\t\t}\n\t\t\t}\n\t\t}\n\t}\n\n\tfunction getLock(\n\t\taddress token, \n\t\taddress lender, \n\t\taddress borrower\n\t) public view returns (uint, uint) {\n\t\tuint x1Amount;\n\t\tuint etherAmount;\n\t\tlock[] storage locksForToken = locks[token];\n\t\tfor (uint i=0; i<locksForToken.length; i++) {\n\t\t\tif (locksForToken[i].lender == lender && locksForToken[i].borrower == borrower) {\n\t\t\t\tx1Amount += locksForToken[i].amountX1;\n\t\t\t\tetherAmount += locksForToken[i].amountEther;\n\t\t\t}\n\t\t}\n\t\treturn (x1Amount, etherAmount);\n\t}\n\n\tfunction getLockLender(\n\t\taddress token, \n\t\taddress lender\n\t) public view returns (uint) {\n\t\tuint x1Amount;\n\t\tlock[] storage locksForToken = locks[token];\n\t\tfor (uint i=0; i<locksForToken.length; i++) {\n\t\t\tif (locksForToken[i].lender == lender) {\n\t\t\t\tx1Amount += locksForToken[i].amountX1;\n\t\t\t}\n\t\t}\n\t\treturn x1Amount;\n\t}\n}\n\n\n\n\n\n\n\n\n\n\n\n\n\n\n\n\n\n",
  "sourcePath": "/Users/marat/work/spotnetio/contracts/contracts/Spot.sol",
  "compiler": {
    "name": "solc",
    "version": "0.4.19+commit.c4cbbb05.Emscripten.clang"
  },
  "schemaVersion": "2.0.0",
  "updatedAt": "2018-04-10T18:58:07.788Z"
}